{
  "contractName": "Bank",
  "abi": [
    {
      "anonymous": false,
      "inputs": [
        {
          "indexed": false,
          "internalType": "uint256",
          "name": "amount",
          "type": "uint256"
        },
        {
          "indexed": true,
          "internalType": "address",
          "name": "depositedTo",
          "type": "address"
        }
      ],
      "name": "depositDone",
      "type": "event"
    },
    {
      "inputs": [],
      "name": "deposit",
      "outputs": [
        {
          "internalType": "uint256",
          "name": "",
          "type": "uint256"
        }
      ],
      "stateMutability": "payable",
      "type": "function",
      "payable": true
    },
    {
      "inputs": [
        {
          "internalType": "uint256",
          "name": "amount",
          "type": "uint256"
        }
      ],
      "name": "withdraw",
      "outputs": [
        {
          "internalType": "uint256",
          "name": "",
          "type": "uint256"
        }
      ],
      "stateMutability": "nonpayable",
      "type": "function"
    },
    {
      "inputs": [],
      "name": "getBalance",
      "outputs": [
        {
          "internalType": "uint256",
          "name": "",
          "type": "uint256"
        }
      ],
      "stateMutability": "view",
      "type": "function",
      "constant": true
    },
    {
      "inputs": [
        {
          "internalType": "address",
          "name": "recipient",
          "type": "address"
        },
        {
          "internalType": "uint256",
          "name": "amount",
          "type": "uint256"
        }
      ],
      "name": "transfer",
      "outputs": [],
      "stateMutability": "nonpayable",
      "type": "function"
    }
  ],
  "bytecode": "0x608060405234801561001057600080fd5b506108d3806100206000396000f3fe60806040526004361061003f5760003560e01c806312065fe0146100445780632e1a7d4d1461006f578063a9059cbb146100ac578063d0e30db0146100d5575b600080fd5b34801561005057600080fd5b506100596100f3565b60405161006691906105b5565b60405180910390f35b34801561007b57600080fd5b5061009660048036038101906100919190610601565b610139565b6040516100a391906105b5565b60405180910390f35b3480156100b857600080fd5b506100d360048036038101906100ce919061068c565b610268565b005b6100dd610404565b6040516100ea91906105b5565b60405180910390f35b60008060003373ffffffffffffffffffffffffffffffffffffffff1673ffffffffffffffffffffffffffffffffffffffff16815260200190815260200160002054905090565b6000816000803373ffffffffffffffffffffffffffffffffffffffff1673ffffffffffffffffffffffffffffffffffffffff16815260200190815260200160002054101561018657600080fd5b816000803373ffffffffffffffffffffffffffffffffffffffff1673ffffffffffffffffffffffffffffffffffffffff16815260200190815260200160002060008282546101d491906106fb565b925050819055503373ffffffffffffffffffffffffffffffffffffffff166108fc839081150290604051600060405180830381858888f19350505050158015610221573d6000803e3d6000fd5b506000803373ffffffffffffffffffffffffffffffffffffffff1673ffffffffffffffffffffffffffffffffffffffff168152602001908152602001600020549050919050565b806000803373ffffffffffffffffffffffffffffffffffffffff1673ffffffffffffffffffffffffffffffffffffffff1681526020019081526020016000205410156102e9576040517f08c379a00000000000000000000000000000000000000000000000000000000081526004016102e09061078c565b60405180910390fd5b8173ffffffffffffffffffffffffffffffffffffffff163373ffffffffffffffffffffffffffffffffffffffff161415610358576040517f08c379a000000000000000000000000000000000000000000000000000000000815260040161034f906107f8565b60405180910390fd5b60008060003373ffffffffffffffffffffffffffffffffffffffff1673ffffffffffffffffffffffffffffffffffffffff1681526020019081526020016000205490506103a63384846104ed565b81816103b291906106fb565b6000803373ffffffffffffffffffffffffffffffffffffffff1673ffffffffffffffffffffffffffffffffffffffff16815260200190815260200160002054146103ff576103fe610818565b5b505050565b6000346000803373ffffffffffffffffffffffffffffffffffffffff1673ffffffffffffffffffffffffffffffffffffffff16815260200190815260200160002060008282546104549190610847565b925050819055503373ffffffffffffffffffffffffffffffffffffffff167f55b8d2fc1aaf27628691a3336b517d7b40bee36ba595a24e893d1e872afb82d1346040516104a191906105b5565b60405180910390a26000803373ffffffffffffffffffffffffffffffffffffffff1673ffffffffffffffffffffffffffffffffffffffff16815260200190815260200160002054905090565b806000808573ffffffffffffffffffffffffffffffffffffffff1673ffffffffffffffffffffffffffffffffffffffff168152602001908152602001600020600082825461053b91906106fb565b92505081905550806000808473ffffffffffffffffffffffffffffffffffffffff1673ffffffffffffffffffffffffffffffffffffffff16815260200190815260200160002060008282546105909190610847565b92505081905550505050565b6000819050919050565b6105af8161059c565b82525050565b60006020820190506105ca60008301846105a6565b92915050565b600080fd5b6105de8161059c565b81146105e957600080fd5b50565b6000813590506105fb816105d5565b92915050565b600060208284031215610617576106166105d0565b5b6000610625848285016105ec565b91505092915050565b600073ffffffffffffffffffffffffffffffffffffffff82169050919050565b60006106598261062e565b9050919050565b6106698161064e565b811461067457600080fd5b50565b60008135905061068681610660565b92915050565b600080604083850312156106a3576106a26105d0565b5b60006106b185828601610677565b92505060206106c2858286016105ec565b9150509250929050565b7f4e487b7100000000000000000000000000000000000000000000000000000000600052601160045260246000fd5b60006107068261059c565b91506107118361059c565b925082821015610724576107236106cc565b5b828203905092915050565b600082825260208201905092915050565b7f42616c616e6365206e6f742073756666696369656e7400000000000000000000600082015250565b600061077660168361072f565b915061078182610740565b602082019050919050565b600060208201905081810360008301526107a581610769565b9050919050565b7f446f6e2774207472616e73666572206d6f6e657920746f20796f757273656c66600082015250565b60006107e260208361072f565b91506107ed826107ac565b602082019050919050565b60006020820190508181036000830152610811816107d5565b9050919050565b7f4e487b7100000000000000000000000000000000000000000000000000000000600052600160045260246000fd5b60006108528261059c565b915061085d8361059c565b9250827fffffffffffffffffffffffffffffffffffffffffffffffffffffffffffffffff03821115610892576108916106cc565b5b82820190509291505056fea2646970667358221220cea32307f41665f06269548e7805023a7d45d33b6c3fcc3ef93a5ebcaa9baa1a64736f6c634300080a0033",
  "immutableReferences": {},
  "source": "// SPDX-License-Identifier: MIT\r\npragma solidity ^0.8.10;\r\n\r\n/**\r\n * @title  Bank  \r\n * @author Lodgerio Padlan\r\n * @dev \r\n        - make sure that the user can not withdraw more than their balance\r\n        - correctly adjust the balance of the user after a withdrawal\r\n        - if someone doesn't have enough balance for their withdrawal, the function call should throw an error and revert the transaction.\r\n\r\n        - accept money and keep track of transfer money between different Ethereum      \r\n        - test: \r\n            - address 1 deposited 1 ether.. getBalance() will give us 1 ether balance for address 1.\r\n\t\t    - address 2 deposited 3 ether.. getBalance() will give us 2 ether balance for address 2.\r\n\t\t    - but the deployed contract will have 3 ether. \r\n\t\t    - because we are only tracking the balance internally using \"balance\" mapping.\t\r\n\r\n * @notice  A simply smart contract to demonstrate \r\n            - payable, allowing a function to receive money.      \r\n            - transfer        \r\n*/\r\n\r\n contract Bank {\r\n \r\n    mapping(address => uint) balance;\r\n    \r\n    event depositDone(uint amount, address indexed depositedTo);\r\n    \r\n\r\n    // To test:\r\n    // enter an amount in the \"Value\" field in Remix and click deposit\r\n    function deposit() public payable returns (uint)  {\r\n        balance[msg.sender] += msg.value; // balance mapping is nothing to do with the balance of the smart contract \r\n                                          // it tracks(internal ballances) which address deposit what money.\r\n        emit depositDone(msg.value, msg.sender);\r\n        return balance[msg.sender];\r\n    }\r\n    \r\n    function withdraw(uint amount) public returns (uint){\r\n        require(balance[msg.sender] >= amount);\r\n        balance[msg.sender] -= amount;\r\n\r\n        // address payable toSend = 0x5B38Da6a701c568545dCfcB03FcB875f56beddC4\r\n        // toSend.transfer(amount);  // the address MUST be payable to transfer money\r\n                                     // transfer has built-in error handling\r\n        //                           // if transfer fails, it will show an error and revert the transaction \r\n        // OR\r\n        payable(msg.sender).transfer(amount);\r\n        return balance[msg.sender];\r\n    }\r\n    \r\n    function getBalance() public view returns (uint){\r\n        return balance[msg.sender];\r\n    }\r\n    \r\n    function transfer(address recipient, uint amount) public {\r\n        require(balance[msg.sender] >= amount, \"Balance not sufficient\");\r\n        require(msg.sender != recipient, \"Don't transfer money to yourself\");\r\n        \r\n        uint previousSenderBalance = balance[msg.sender];\r\n        \r\n        _transfer(msg.sender, recipient, amount);\r\n                \r\n        assert(balance[msg.sender] == previousSenderBalance - amount);\r\n    }\r\n    \r\n    function _transfer(address from, address to, uint amount) private {\r\n        balance[from] -= amount;\r\n        balance[to] += amount;\r\n    }\r\n\r\n\r\n}    ",
  "sourcePath": "D:\\blockchain\\payableTruffleProject\\contracts\\Bank.sol",
  "compiler": {
    "name": "solc",
    "version": "0.8.10+commit.fc410830.Emscripten.clang"
  },
  "schemaVersion": "3.4.4",
  "updatedAt": "2022-01-10T05:11:22.640Z",
  "networkType": "ethereum",
  "devdoc": {
    "author": "Lodgerio Padlan",
    "details": " - make sure that the user can not withdraw more than their balance - correctly adjust the balance of the user after a withdrawal - if someone doesn't have enough balance for their withdrawal, the function call should throw an error and revert the transaction. - accept money and keep track of transfer money between different Ethereum       - test:  - address 1 deposited 1 ether.. getBalance() will give us 1 ether balance for address 1. - address 2 deposited 3 ether.. getBalance() will give us 2 ether balance for address 2. - but the deployed contract will have 3 ether.  - because we are only tracking the balance internally using \"balance\" mapping.\t",
    "kind": "dev",
    "methods": {},
    "title": "Bank  ",
    "version": 1
  },
  "userdoc": {
    "kind": "user",
    "methods": {},
    "notice": "A simply smart contract to demonstrate  - payable, allowing a function to receive money.       - transfer        ",
    "version": 1
  }
}